:020000040800F2
:1000000000800020D91C0008351D0008351D00089F
:10001000351D0008351D0008351D000800000000D2
:1000200000000000000000000000000051800008F7
:10003000351D000800000000F17F0008B97C0008B1
:10004000351D0008351D0008351D000800000000A2
:10005000351D0008351D0008351D00080000000092
:10006000351D0008351D000800000000351D000882
:10007000351D0008351D0008351D0008351D000818
:10008000351D0008351D0008351D0008351D000808
:10009000351D0008351D0008351D0008351D0008F8
:1000A000351D0008351D0008351D0008351D0008E8
:1000B000351D0008351D0008351D0008351D0008D8
:1000C000351D0008351D0008351D0008351D0008C8
:1000D00000000000351D0008351D0008351D000812
:1000E000351D0008351D0008351D0008351D0008A8
:1000F000351D0008351D0008351D000800000000F2
:1001000000000000351D0008351D0008351D0008E1
:10011000351D0008351D0008351D0008351D000877
:10012000351D0008351D0008351D0008351D000867
:10013000351D00080000000000000000351D00080B
:10014000351D000800000000000000000000000055
:100150000000000000000000351D00080000000045
:100160000000000000000000351D0008351D0008DB
:10017000000000000000000000000000000000007F
:10018000000000000000000000000000000000006F
:10019000000000000000000000000000000000005F
:1001A0000000000000000000351D0008351D00089B
:1001B000351D0008351D0008351D0008351D0008D7
:1001C000351D0008351D000800000000000000007B
:1001D000000000000000000000000000351D0008C5
:1001E000351D0008000000000000000000000000B5
:1001F00000000000000000000000000000000000FF
:1002000000000000351D0008351D0008000000003A
:1002100000000000351D0008000000000000000084
:10022000000000000000000000000000351D000874
:10023000351D000800000000000000000000000064
:10024000000000000000000000000000351D000854
:08025000351D0008351D0008F2
:1002580053B94AB9002908BF00281CBF4FF0FF3125
:100268004FF0FF3000F00CB8ADF1080C6DE904CE8A
:1002780008F0D0F8DDF804E0DDE9022304B07047A7
:10028800704700BF844641EA000313F0030349D1D5
:10029800403A23D30B6803604B6843608B688360E4
:1002A800CB68C3600B6903614B6943618B698361E8
:1002B800CB69C3610B6A03624B6A43628B6A8362D0
:1002C800CB6AC3620B6B03634B6B43638B6B8363B8
:1002D800CB6BC36340304031403ADBD230320BD372
:1002E8000B6803604B6843608B688360CB68C360AE
:1002F80010301031103AF3D20C3205D351F8043BC8
:1003080040F8043B043AF9D2043208D0D2071CBFA3
:1003180011F8013B00F8013B01D30B8803806046CC
:10032800704700BF082A13D38B07B1D010F003031E
:10033800AED0C3F10403D21ADB071CBF11F8013B8E
:1003480000F8013BA4D331F8023B20F8023B9FE7B9
:10035800043AD9D3013A11F8013B00F8013BF9D22C
:100368000B7803704B7843708B78837060467047C6
:1003780081F0004102E000BF83F0004330B54FEA4E
:1003880041044FEA430594EA050F08BF90EA020FBB
:100398001FBF54EA000C55EA020C7FEA645C7FEA4E
:1003A800655C00F0E2804FEA5454D4EB5555B8BF71
:1003B8006D420CDD2C4480EA020281EA030382EAE2
:1003C800000083EA010180EA020281EA0303362D74
:1003D80088BF30BD11F0004F4FEA01314FF4801C47
:1003E8004CEA113102D0404261EB410113F0004F59
:1003F8004FEA03334CEA133302D0524263EB430310
:1004080094EA050F00F0A780A4F10104D5F1200EAD
:100418000DDB02FA0EFC22FA05F2801841F1000108
:1004280003FA0EF2801843FA05F359410EE0A5F1DC
:1004380020050EF1200E012A03FA0EFC28BF4CF00D
:10044800020C43FA05F3C01851EBE37101F00045C3
:1004580007D54FF0000EDCF1000C7EEB00006EEBD0
:100468000101B1F5801F1BD3B1F5001F0CD349085A
:100478005FEA30004FEA3C0C04F101044FEA4452B1
:1004880012F5800F80F09A80BCF1004F08BF5FEA38
:10049800500C50F1000041EB045141EA050130BD18
:1004A8005FEA4C0C404141EB0101013C28BFB1F52A
:1004B800801FE9D291F0000F04BF01460020B1FA75
:1004C80081F308BF2033A3F10B03B3F120020CDA48
:1004D8000C3208DD02F1140CC2F10C0201FA0CF026
:1004E80021FA02F10CE002F11402D8BFC2F1200C8B
:1004F80001FA02F120FA0CFCDCBF41EA0C01904041
:10050800E41AA2BF01EB0451294330BD6FEA040489
:100518001F3C1CDA0C340EDC04F11404C4F1200274
:1005280020FA04F001FA02F340EA030021FA04F386
:1005380045EA030130BDC4F10C04C4F1200220FADD
:1005480002F001FA04F340EA0300294630BD21FA1B
:1005580004F0294630BD94F0000F83F4801306BFE1
:1005680081F480110134013D4EE77FEA645C18BFD5
:100578007FEA655C29D094EA050F08BF90EA020F6C
:1005880005D054EA000C04BF1946104630BD91EA64
:10059800030F1EBF0021002030BD5FEA545C05D167
:1005A8004000494128BF41F0004130BD14F58004A6
:1005B8003CBF01F5801130BD01F0004545F0FE411A
:1005C80041F470014FF0000030BD7FEA645C1ABF4F
:1005D800194610467FEA655C1CBF0B46024650EA86
:1005E800013406BF52EA033591EA030F41F40021B2
:1005F80030BD00BF90F0000F04BF0021704730B538
:100608004FF4806404F132044FF000054FF000010C
:1006180050E700BF90F0000F04BF0021704730B5CD
:100628004FF4806404F1320410F0004548BF4042A2
:100638004FF000013EE700BF42004FEAE2014FEAF7
:1006480031014FEA02701FBF12F07F4393F07F4FD2
:1006580081F06051704732F07F4208BF704793F0D5
:100668007F4F04BF41F40021704730B54FF46074E8
:1006780001F0004521F000411CE700BF50EA0102EB
:1006880008BF704730B54FF000050AE050EA010294
:1006980008BF704730B511F0004502D5404261EB04
:1006A80041014FF4806404F132045FEA915C3FF445
:1006B800D8AE4FF003025FEADC0C18BF03325FEAE2
:1006C800DC0C18BF033202EBDC02C2F1200300FA93
:1006D80003FC20FA02F001FA03FE40EA0E0021FAB8
:1006E80002F11444BDE600BF70B54FF0FF0C4CF4A6
:1006F800E06C1CEA11541DBF1CEA135594EA0C0F58
:1007080095EA0C0F00F0DEF82C4481EA030621EA92
:100718004C5123EA4C5350EA013518BF52EA0335CD
:1007280041F4801143F4801338D0A0FB02CE4FF07F
:100738000005E1FB02E506F00042E0FB03E54FF0AF
:100748000006E1FB03569CF0000F18BF4EF0010EA7
:10075800A4F1FF04B6F5007F64F5407404D25FEAA3
:100768004E0E6D4146EB060642EAC62141EA555156
:100778004FEAC52040EA5E504FEACE2EB4F1FD0C98
:1007880088BFBCF5E06F1ED8BEF1004F08BF5FEA16
:10079800500E50F1000041EB045170BD06F00046C8
:1007A80046EA010140EA020081EA0301B4EB5C0475
:1007B800C2BFD4EB0C0541EA045170BD41F480116D
:1007C8004FF0000E013C00F3AB8014F1360FDEBF92
:1007D800002001F0004170BDC4F10004203C35DA6E
:1007E8000C341BDC04F11404C4F1200500FA05F3F1
:1007F80020FA04F001FA05F240EA020001F0004292
:1008080021F0004110EBD37021FA04F642EB060107
:100818005EEA430E08BF20EAD37070BDC4F10C0431
:10082800C4F1200500FA04F320FA05F001FA04F2F5
:1008380040EA020001F0004110EBD37041F10001E1
:100848005EEA430E08BF20EAD37070BDC4F12005EC
:1008580000FA05F24EEA020E20FA04F301FA05F254
:1008680043EA020321FA04F001F0004121FA04F2FC
:1008780020EA020000EBD3705EEA430E08BF20EACC
:10088800D37070BD94F0000F0FD101F00046400006
:1008980041EB010111F4801F08BF013CF7D041EA88
:1008A800060195F0000F18BF704703F0004652008C
:1008B80043EB030313F4801F08BF013DF7D043EA5D
:1008C8000603704794EA0C0F0CEA135518BF95EA13
:1008D8000C0F0CD050EA410618BF52EA4306D1D19A
:1008E80081EA030101F000414FF0000070BD50EAB9
:1008F800410606BF1046194652EA430619D094EA43
:100908000C0F02D150EA013613D195EA0C0F05D12C
:1009180052EA03361CBF104619460AD181EA030180
:1009280001F0004141F0FE4141F470014FF0000038
:1009380070BD41F0FE4141F4780170BD70B54FF0D3
:10094800FF0C4CF4E06C1CEA11541DBF1CEA135553
:1009580094EA0C0F95EA0C0F00F0A7F8A4EB050435
:1009680081EA030E52EA03354FEA013100F088802C
:100978004FEA03334FF0805545EA131343EA1263F5
:100988004FEA022245EA111545EA10654FEA0026AA
:100998000EF000419D4208BF964244F1FD0404F563
:1009A800407402D25B084FEA3202B61A65EB0305BF
:1009B8005B084FEA32024FF480104FF4002CB6EB7C
:1009C800020E75EB030E22BFB61A754640EA0C00FC
:1009D8005B084FEA3202B6EB020E75EB030E22BF3C
:1009E800B61A754640EA5C005B084FEA3202B6EB7D
:1009F800020E75EB030E22BFB61A754640EA9C003C
:100A08005B084FEA3202B6EB020E75EB030E22BF0B
:100A1800B61A754640EADC0055EA060E18D04FEAC9
:100A2800051545EA16754FEA06164FEAC30343EA69
:100A380052734FEAC2025FEA1C1CC0D111F4801F36
:100A48000BD141EA00014FF000004FF0004CB6E72F
:100A580011F4801F04BF01430020B4F1FD0C88BFCE
:100A6800BCF5E06F3FF6AFAEB5EB030C04BFB6EBD9
:100A7800020C5FEA500C50F1000041EB045170BDCC
:100A88000EF0004E4EEA113114EB5C04C2BFD4EBF9
:100A98000C0541EA045170BD41F480114FF0000E7D
:100AA800013C90E645EA060E8DE60CEA135594EAF9
:100AB8000C0F08BF95EA0C0F3FF43BAF94EA0C0FFC
:100AC8000AD150EA01347FF434AF95EA0C0F7FF471
:100AD80025AF104619462CE795EA0C0F06D152EAC5
:100AE80003353FF4FDAE1046194622E750EA4106A9
:100AF80018BF52EA43067FF4C5AE50EA41047FF4BA
:100B08000DAF52EA43057FF4EBAE12E74FF0FF3C1E
:100B180006E000BF4FF0010C02E000BF4FF0010CEF
:100B28004DF804CD4FEA410C7FEA6C5C4FEA430C68
:100B380018BF7FEA6C5C1BD001B050EA410C0CBFB7
:100B480052EA430C91EA030F02BF90EA020F002019
:100B5800704710F1000F91EA030F58BF994208BF80
:100B680090422CBFD8176FEAE37040F0010070473D
:100B78004FEA410C7FEA6C5C02D150EA013C07D194
:100B88004FEA430C7FEA6C5CD6D152EA033CD3D0DF
:100B98005DF8040B704700BF8446104662468C46D9
:100BA8001946634600E000BF01B5FFF7B7FF00280C
:100BB80048BF10F1000F01BD4DF808EDFFF7F4FF35
:100BC8000CBF012000205DF808FB00BF4DF808EDC0
:100BD800FFF7EAFF34BF012000205DF808FB00BFE3
:100BE8004DF808EDFFF7E0FF94BF012000205DF805
:100BF80008FB00BF4DF808EDFFF7CEFF94BF0120BA
:100C080000205DF808FB00BF4DF808EDFFF7C4FFB2
:100C180034BF012000205DF808FB00BF4FEA410CFB
:100C28007FEA6C5C02D150EA013C0AD14FEA430CDE
:100C38007FEA6C5C02D152EA033C02D14FF000001B
:100C480070474FF0010070474FEA410212F5001259
:100C580015D211D56FF47873B3EB625212D94FEAFB
:100C6800C12343F0004343EA505311F0004F23FAE5
:100C780002F018BF404270474FF00000704750EA3A
:100C8800013005D111F0004008BF6FF000407047F7
:100C98004FF00000704700BF0348044B834202D066
:100CA800034B03B118477047E0060020E006002018
:100CB80000000000064B0749C91A891048BF0131D6
:100CC800491003D0044B0BB101481847704700BFC7
:100CD800E0060020E00600200000000010B5064CE9
:100CE800237843B9FFF7D8FF044B13B10448AFF397
:100CF80000800123237010BDE006002000000000E2
:100D080034E5000808B5054B1BB105490548AFF3A4
:100D18000080BDE80840FFF7CDBF00BF000000001D
:100D2800E406002034E50008024A0349034800F0BD
:100D3800C9B800BF00000020991900081000002061
:100D48000C4B4168994210B5044601D000F020FED2
:100D5800A168094B994202D0204600F019FEE168CB
:100D6800064B994204D02046BDE8104000F010BE62
:100D780010BD00BFFC06002064070020CC0700203F
:100D88002DE9F843314A0025314C04233149DFF875
:100D9800D89004F15C00DFF8D4802F4F2F4E1160FB
:100DA8002946082225606566C4E90335C4E901556A
:100DB800C4E9055500F0F2F804F15800E662C4E908
:100DC8000749C4E9098700F0B3F9254B29460822E9
:100DD80004F1C40063672567C4F8CC50C4F8805098
:100DE800C4E91A55C4E91E5500F0D8F804F168039F
:100DF80004F1C000C4F88430C4E92298C4E9247618
:100E080000F096F9174B294604F596700822C4F8A5
:100E1800DC30C4F8D850C4F83451C4F8E850C4E9F8
:100E28003455C4E9385500F0B9F804F1D00304F595
:100E38009470C4F8F090C4F8FC60C4F8EC30C4E9CD
:100E48003D87BDE8F84300F073B900BF34080020BF
:100E5800FC060020310D0008750F00089D0F0008E2
:100E68000900010012000200110F0008350F0008E8
:100E780010B504460A4800F05FF9636B23B9094BC3
:100E8800094A1B68626323B10548BDE8104000F0B9
:100E980055B9FFF775FF0248BDE8104000F04EB99C
:100EA8004408002034080020490D0008014800F0DB
:100EB80043B900BF44080020014800F03FB900BF13
:100EC800440800202DE9F8434FF0000907468846FA
:100ED8001646D6E90154013D0FD4A389012B08D940
:100EE800B4F90E3021463846013302D0C04749EAEA
:100EF8000009013D68346B1CEFD13668002EE8D13B
:100F08004846BDE8F88300BF10B50C46B1F90E108D
:100F180000F0BAF8002803DB236D0344236510BDF5
:100F2800A38923F48053A38110BD00BF2DE9F041AC
:100F38000C46B1F90C101F460546CB0516460BD4D6
:100F480021F480513B4632462846A181B4F90E105F
:100F5800BDE8F04100F0AEB8B4F90E10022300224B
:100F680000F07CF8B4F90C10EAE700BF10B50C46A5
:100F7800B1F90E1000F072F8421CB4F90C3004D02C
:100F880043F480532065A38110BD23F48053A381CB
:100F980010BD00BFB1F90E1000F04EB8830730B590
:100FA80046D08418844604E003F8011B9D0704D04A
:100FB8009C46A4456346F7D130BD013A0244A2EBF2
:100FC8000C02032A29D9CCB20F2A04EB042404EB1F
:100FD80004442FD9A2F1100C03F110052CF00F0CCA
:100FE800AC44C3E90044C3E9024410336345F8D173
:100FF80012F00C0F02F00F0E18D02EF0030CAEF109
:1010080004051A469C4442F8044B6245FBD125F07E
:10101800030404330EF003022344002ACCD0C9B2DF
:101028001A4403F8011B9342FBD130BD7246F4E722
:101038000346C6E79646E0E738B50022064D044663
:1010480008462A6000F048FF431C00D038BD2B68D2
:10105800002BFBD0236038BD3808002038B50C467B
:1010680084461146074D1A460023204664462B60E5
:1010780000F059FF431C00D038BD2B68002BFBD073
:10108800236038BD3808002038B50C468446114620
:10109800074D1A460023204664462B6000F0E3FE05
:1010A800431C00D038BD2B68002BFBD0236038BD13
:1010B8003808002038B50C4684461146074D1A46B4
:1010C8000023204664462B6000F0EAFE431C00D053
:1010D80038BD2B68002BFBD0236038BD38080020B2
:1010E8000F4B70B50F4DAB42A3EB050607D0B610FA
:1010F8000024013455F8043B9847A642F9D80A4D14
:101108000DF014FA094B5E1BAB424FEAA60606D057
:101118000024013455F8043B9847A642F9D870BD1D
:10112800FCEA0008FCEA0008FCEA000804EB0008F6
:10113800704700BF704700BF704700BF704700BFCF
:10114800024B13B1024800F005B8704700000000D8
:10115800051C0008002301461A46184600F070BD19
:101168002DE9F8430646DFF8AC800820894600F0F0
:1011780059FD0546304600F0FFFBD8F808305F6897
:1011880027F00307A7F11104A4EB09042C44B4FBCE
:10119800F5F4013C05FB04F4A54208DC00213046C7
:1011A80000F01AFDD8F808303B44984205D0304684
:1011B80000F0E8FB0020BDE8F8836142304600F00B
:1011C8000BFD01300FD03F1B104AD8F808303046CD
:1011D80047F001075F6013681B1B136000F0D2FB28
:1011E8000120BDE8F8830021304600F0F5FCD8F86E
:1011F8000820831A0F2BDADD43F0010303495360FB
:10120800034B1B68C01A0860D1E700BF4C080020D8
:10121800540100206001002000295AD0F8B50C467E
:10122800074600F0A9FB734D54F804CCA4F108025A
:10123800A8682CF001030CF0010ED1184E68884202
:1012480026F003067CD088194E60406800F0010043
:10125800BEF1000F2ED154F8084C05F1080C121BF2
:1012680023449468644560D0D2F80CE0C4F80CE0DC
:10127800CEF8084000287DD043F0010050600B6094
:10128800B3F5007F2ED25809D90801238340686836
:101298000131034355F831006B6005EBC103083B8E
:1012A800C2E9020345F83120C2603846BDE8F8407B
:1012B80000F068BB70B9334405F1080C886843F046
:1012C800010460456ED0C968C16088605460D3501D
:1012D800D6E770474CF00101B3F5007F44F8041CD1
:1012E800D350D0D3B3F5206F4FEA532144D2990994
:1012F80001F1390001F13804C1006818695808384B
:10130800884203D155E08968884204D04C6824F0AB
:1013180003049C42F7D8C868C2E9021082603846C4
:10132800CA60BDE8F84000F02DBB80BB1E44D1E97F
:101338000213CB60996046F0010353609651B4E7FD
:101348001E44BEF1000F07D154F8083CD21A1E44BF
:10135800D2E90213CB60996046F001035360264B33
:10136800AA601B68B342A0D8244B38461968FFF717
:10137800F7FE9AE73344A1E714290DD954291FD859
:10138800190B01F16F0001F16E04C100B5E743F0DC
:10139800010050600B6088E701F15C0001F15B041B
:1013A800C100AAE7C5E90422C2E902CC5460D350BF
:1013B8007BE7A4100123A3406C6823436B60ABE771
:1013C800B1F5AA7F06D8D90B01F1780001F17704AD
:1013D800C10092E740F25450814206D8990C01F1BD
:1013E8007D0001F17C04C10087E74FF47E717E2403
:1013F80083E700BF60010020580100207C0800201E
:1014080001F10B03162B2DE9F04F074683B023D8C3
:10141800102900F2AF8000F0AFFA1025182302203F
:10142800BA4E33445C68A3F10802944200F0568136
:101438006368384623F00303D4E902122344CA60E0
:1014480091605A68083442F001025A6000F09AFA32
:10145800204603B0BDE8F08F002B23F00705C0F24B
:101468008980A94200F2868000F086FAB5F5FC7FF3
:10147800C0F07B826B0A00F08480042B00F262814A
:10148800AB0903F1390003F1380EC3009F4E334412
:10149800A3F1080C5C68A44507D10DE0002AE168B7
:1014A80080F216818C450C4606D0636823F003034E
:1014B8005A1B0F2AF2DD7046DFF86882346944450A
:1014C80000F0F280636823F0030CACEB05030F2BEC
:1014D80000F37481002BC6E9048880F26381BCF5AF
:1014E800007FD6F804E080F0FF804FEADC03012299
:1014F8004FEA5C1C013302FA0CF256F833104EEA3C
:10150800020E06EBC302083AC6F804E0C4E9021268
:1015180046F83340CC6083104FF0010C0CFA03FC02
:10152800F44534D81CEA0E0F07D120F003004FEA27
:101538004C0C04301CEA0E0FF9D006EBC00A8146A9
:10154800D646DEF80C300BE05A681C46DB6822F001
:101558000302511B0F2900F30181002980F2158134
:101568009E45F1D109F101090EF1080E19F0030F9A
:10157800E7D158E10C233B600024204603B0BDE8C6
:10158800F08F4FF4007340204FF03F0E7EE7B468B1
:10159800636823F00309A945A9EB050302D30F2BC0
:1015A80000F385805A4B08201B6803F1100804EBF0
:1015B8000903009300F036FB564AA8448346136893
:1015C800013305D008F1FF384342804403EA080894
:1015D8004146384600F000FBB0F1FF3F82464D4AD5
:1015E80000F0078104EB0903834200F200814A4BB3
:1015F8000BF1FF3C18684044186000F064811168E2
:10160800013100F06C8104EB0902AAEB02020244EA
:101618001A601AF00702CDE9002300F02781C2F111
:101628000802384692445A44D04408EA0C01521A37
:1016380002EA0C0B594600F0CFFA421C019B00F05D
:101648006A81A0EB0A0000EB0B08186848F0010259
:10165800B442C6F808A05844CAF80420186017D045
:10166800B9F10F0F40F23E816168A9F10C024FF009
:10167800050C22F0070201F0010111430F2A6160F5
:1016880004EB0201C1E901CC00F24D81DAF8042033
:10169800224B54461968814238BF1860204B19689C
:1016A800814238BF1860A6E0D6F804E033E7621933
:1016B80045F0010543F00103083444F8045C38465A
:1016C800B260536000F05EF9204603B0BDE8F08FC9
:1016D800A26823443846D1608A60B2E6DC68A34237
:1016E8007FF4A6AE0230E7E6BCF5206F4FEA5C2235
:1016F80076D3142A00F2CD8002F15C035B32DB0062
:10170800F118F3580839994211D1A5E06001002079
:101718007C080020540100204C0800207808002094
:1017280074080020680100209B68994204D05A6818
:1017380022F003026245F7D8D968C4E902318C6007
:10174800DC60E8E6142B63D9542B00F2AB802B0B3A
:1017580003F16F0003F16E0EC30097E6D4F808C0DA
:101768003846671945F001056560CCF80C30C3F8B8
:1017780008C041F00103C6E90477C7E902887B6025
:10178800A150083400F0FEF8F7E6224438465168C4
:1017980041F00101516054F8082FD3609A6000F0BD
:1017A800F1F8EAE6A44438460834DCF8043043F09B
:1017B8000103CCF8043000F0E5F8DEE6621943F0E6
:1017C800010145F0010538466560C6E90422C2E911
:1017D8000288516044F80C30083400F0D3F8CCE6A5
:1017E8004FEA9C1202F139033832DB0088E7B44231
:1017F80062D0B468626822F00308A845A8EB050324
:1018080002D30F2B3FF753AF384600F0BBF8B3E6CF
:1018180003F15C0003F15B0EC30037E65AF80839A0
:10182800534540F0A08010F0030F00F1FF30F5D1D0
:10183800736823EA0C0373604FEA4C0C0CF1FF3217
:101848009A4204D3A3E64FEA4C0C09F104091CEAB6
:10185800030FF8D0484670E692104FF0010C0CFACE
:1018680002F24EEA020EC6F804E066E70AEB080246
:10187800384602EA0C02ABEB020B0BEA0C0B59469A
:1018880000F0AAF9431C019B7FF4DBAEDDF800B041
:10189800DBE6542A2AD84FEA1C3202F16F036E3273
:1018A800DB002DE7B3F5AA7F2AD8EB0B03F178000C
:1018B80003F1770EC300E9E52E4B0BF1FF3C1868E6
:1018C800404418609BE61AEA0C0F7FF498AEC844AF
:1018D800D6F808A048F00102CAF80420D8E6C2F8F1
:1018E80000A096E60123CAF804308DE7B2F5AA7F76
:1018F80024D84FEADC3202F178037732DB00FFE6C6
:1019080040F25452934224D8AB0C03F17D0003F10A
:101918007C0EC300BAE5009A4FF0000B083A9044D9
:10192800A8EB0A0891E6384604F108010093FFF78E
:1019380073FC009BD6F808A01868A7E640F2545339
:101948009A420CD84FEA9C4202F17D037C32DB00BC
:10195800D6E64FF47E737F204FF07E0E96E54FF467
:101968007E737E22CCE6736866E7E80805F1080313
:1019780056E500BF4C0800200148FFF7DDBB00BF5B
:101988003C0800200148FFF7D9BB00BF3C080020F5
:1019980070B500293FD006460C4610B1436B002BAA
:1019A8003CD0636EB4F90C20DD0732D4900538D5ED
:1019B8002146304600F04CF8E36A054633B1E16948
:1019C800304698470028B8BF4FF0FF35A3891A065C
:1019D80039D4216B41B104F14003994202D0304619
:1019E800FFF71AFC00232363616C21B13046FFF72F
:1019F80013FC00236364FFF759FA636E0022DB07C8
:101A0800A2811CD5A06DFFF795FBFFF755FA284674
:101A180070BD002ACCD10025284670BDFFF728FAF2
:101A2800BFE7A06DFFF788FBB4F90C30002BBFD1DE
:101A3800636ED907EFD4A06DFFF780FBEBE7A06DCD
:101A4800FFF77CFBDEE721693046FFF7E5FBC0E7DF
:101A5800B1F90C202DE9F04115070C4680464ED40B
:101A6800496842F400630029A38163DDA66A002E59
:101A780042D0002112F48052D8F80050C8F8001063
:101A880065D10123E1694046B0470246501C6CD03D
:101A9800B4F90C30A66A590705D56368D21A236BC6
:101AA8000BB1E36BD21A0023E1694046B047421CF0
:101AB800B4F90C304DD1D8F800101D2940D8304A5F
:101AC800CA40D7073CD523F40062DE04A2814FF058
:101AD800000262602269226001D5002943D0216B8F
:101AE800C8F8005041B104F14003994202D0404681
:101AF800FFF792FB002323630020BDE8F0810E6905
:101B0800002EF9D092070D680E600CBF4B690023B8
:101B1800AD1B8B600BE02B463246E1694046676A95
:101B2800B847B0F1000CA5EB0C05664406DD002DA6
:101B3800F1DCE1E7E16B002998DCDDE7B4F90C3072
:101B480043F040034FF0FF30A381BDE8F081226DE0
:101B5800A1E723F40062DB04A2814FF00002626077
:101B680022692260BBD52065B9E7D8F80030002B80
:101B78008ED01D2B01D0162BE0D1C8F80050BBE742
:101B88000100402038B505460C4608B1436B03B345
:101B9800B4F90C0088B1636EDB0701D481050FD559
:101BA80028462146FFF754FF636E0546DA0702D43C
:101BB800A3899B0508D5284638BD0546284638BD63
:101BC800A06DFFF7B9FAEBE7A06DFFF7B7FA284663
:101BD80038BDFFF74DF9DBE738B50022064D04465E
:101BE80008462A6000F0ACF9431C00D038BD2B68C9
:101BF800002BFBD0236038BD3808002038B5074DCE
:101C0800074C2C1BA41005D0013C55F8043D9847FF
:101C1800002CF9D1BDE838400CF08EBC08EB000868
:101C280004EB0008082802D14FF48050704708B52B
:101C380000F048F8162203464FF0FF301A6008BD3E
:101C48002DE9F8431C4D064698460F4628689146EC
:101C5800FFF772FA194B1C682CB3286865681F2DAA
:101C680024DC4EB96B1C0235636044F82570FFF71D
:101C780065FA0020BDE8F88304EB85010123022EF4
:101C8800C1F8889003FA05F3D4F8882142EA0302E0
:101C9800C4F88821C1F80881E4D1D4F88C211A430A
:101CA800C4F88C21DEE7064C1C60D6E7FFF746FA3D
:101CB8004FF0FF30DEE700BF500100204808002049
:101CC80080080020014B1868704700BF0C000020F6
:101CD800DFF83CD00F4880F30A88002103E00E4B60
:101CE8005B58435004310D480D4B42189A42F6D3C5
:101CF8000C4A02E0002342F8043B0B4B9A42F9D30A
:101D080000F016F8FFF7ECF906F0AAF9FEE7000074
:101D1800008000200078002008EB00080000002068
:101D2800E0060020E0060020945C0020FEE70000AA
:101D380080B483B000AF334BD3F88830314A43F4D2
:101D48007003C2F88830304B1B6803F018032E4A22
:101D580043F0010313602C4B0022DA612A4B002266
:101D68001A62294B1A682849284B13400B60264BE6
:101D780000229A62244B0022DA62234B244A5A63D7
:101D8800214B00229A63204B214ADA631E4B002222
:101D98001A641D4B1B681C4A23F4802313601A4BDA
:101DA80000221A65174B4FF000629A60194B9B6925
:101DB80003F060437B607B68B3F1604F03D07B68BE
:101DC800B3F1404F17D1134BDB6903F00103002B2C
:101DD80005D0104B104ADA600E4B104ADA600D4BF2
:101DE800DB690C4A43F00203D3610A4BDB69094AF9
:101DF80043F00103D36100BF0C37BD465DF8047B97
:101E0800704700BF00ED00E0000C0244FBEAE2FA74
:101E180080020101002002403B2A19087F6E5D4CB8
:101E280080B400AF01231846BD465DF8047B7047B7
:101E380080B582B000AF78603960FFF743FF034692
:101E480016221A604FF0FF3318460837BD4680BD8A
:101E580080B582B000AF78604FF0FF317868FFF747
:101E6800E7FF00BFFDE780B586B000AFF860B96056
:101E78007A6000237B610AE0AFF300800146BB680B
:101E88005A1CBA60CAB21A707B6901337B617A69DD
:101E98007B689A42F0DB7B6818461837BD4680BDE0
:101EA80080B586B000AFF860B9607A6000237B61C6
:101EB80009E0BB685A1CBA601B78184606F0CCF9D2
:101EC8007B6901337B617A697B689A42F1DB7B68C5
:101ED80018461837BD4680BD80B483B000AF78601F
:101EE8004FF0FF3318460C37BD465DF8047B70474A
:101EF80080B483B000AF786039603B684FF400521B
:101F08005A60002318460C37BD465DF8047B7047BD
:101F180080B483B000AF7860012318460C37BD4603
:101F28005DF8047B704780B485B000AFF860B96095
:101F38007A60002318461437BD465DF8047B704765
:101F480080B586B000AF7860144A154BD31A7B6110
:101F58007B693B61134B1B68002B02D1114B124A62
:101F68001A60104B1A687B6813443A699A4207D280
:101F7800FFF7A8FE03460C221A604FF0FF3309E072
:101F8800084B1B68FB60074B1A687B681344054ABB
:101F98001360FB6818461837BD4680BD00800020D6
:101FA80000080000100A0020985C002080B500AFEF
:101FB800124B1B68114A43F480731360032003F02B
:101FC80018F900F0B1FE02460D4B1B6A03F00F032F
:101FD8000C49CB5C22FA03F30B4A1360042003F08C
:101FE8004FF90F2000F01AF80346002B01D0012307
:101FF80002E000F00BF80023184680BD00200240E4
:10200800000C0244D0E600086805002080B400AF48
:1020180000BFBD465DF8047B7047000080B584B002
:1020280000AF78600023FB60334B1B78002B01D195
:1020380001235CE0314B1B6803F00403042B0CD133
:102048002F4B1A682C4B1B7819464FF47A73B3FB45
:10205800F1F3B2FBF3F3FB6037E003F069F9B86022
:10206800BB68022B23D0BB68022B2DD8BB68002B82
:1020780003D0BB68012B0DD026E0214B1A681E4BFC
:102088001B7819464FF4FA53B3FBF1F3B2FBF3F3A1
:10209800FB601AE0184B1B781A464FF47A73B3FBAF
:1020A800F2F34FF4FA42B2FBF3F3FB600DE0124B8C
:1020B8001B781A464FF47A73B3FBF2F34FF40042DD
:1020C800B2FBF3F3FB6000E000BFF86803F0B6F87A
:1020D8000346002B01D0012309E0002279684FF064
:1020E800FF3003F091F8074A7B6813600023184615
:1020F8001037BD4680BD00BF7005002010E000E02D
:10210800680500206C05002080B400AF064B1B78E2
:102118001A46064B1B681344044A136000BFBD46A9
:102128005DF8047B704700BF70050020140A00208A
:1021380080B400AF034B1B681846BD465DF8047BAE
:10214800704700BF140A002080B588B000AF7860DF
:102158007B68002B02D1012300F028BC944BDB697B
:1021680003F01803FB61924B9B6A03F00303BB6106
:102178007B681B6803F01003002B5BD0FB69082BFE
:1021880005D0FB69182B14D1BB69022B11D17B68D0
:10219800DB69002B02D1012300F008BC844B9B694A
:1021A80023F47C127B681B6A1B04814913438B61EF
:1021B80040E07B68DB69002B23D07D4B1B687C4AA1
:1021C80043F480731360FFF7B3FF786108E0FFF70B
:1021D800AFFF02467B69D31A022B01D90323E5E33B
:1021E800734B1B6803F40073002BF0D0704B9B6992
:1021F80023F47C127B681B6A1B046D4913438B61B3
:1022080018E06B4B1B686A4A23F480731360FFF76E
:102218008FFF786108E0FFF78BFF02467B69D31ACE
:10222800022B01D90323C1E3614B1B6803F400733C
:10223800002BF0D17B681B6803F00103002B00F032
:10224800A080FB69102B05D0FB69182B09D1BB694D
:10225800032B06D17B685B68002B40F0928001233A
:10226800A4E37B685B68B3F5803F06D1504B1B68DD
:102278004F4A43F48033136058E07B685B68002B57
:1022880012D14B4B1B684A4A23F480331360484BE6
:102298001B68474A23F480131360454B1B68444A64
:1022A80023F48023136041E07B685B68B3F5A02FBB
:1022B80012D13F4B1B683E4A43F4802313603C4BCA
:1022C8001B683B4A23F480131360394B1B68384A58
:1022D80043F48033136029E07B685B68B3F5A81F7B
:1022E80012D1334B1B68324A43F480231360304BBE
:1022F8001B682F4A43F4801313602D4B1B682C4A2C
:1023080043F48033136011E0294B1B68284A23F4F7
:1023180080331360264B1B68254A23F480231360FF
:10232800234B1B68224A23F4801313607B685B6885
:10233800002B13D0FFF7FCFE786108E0FFF7F8FEEA
:1023480002467B69D31A642B01D903232EE3184B69
:102358001B6803F40033002BF0D012E0FFF7E8FE0F
:10236800786108E0FFF7E4FE02467B69D31A642B24
:1023780001D903231AE30E4B1B6803F40033002B27
:10238800F0D17B681B6803F00203002B00F09A80F1
:10239800FB69002B05D0FB69182B49D1BB69012BC0
:1023A80046D17B68DB68002B04D10123FEE200BF25
:1023B800000C0244FB69002B1CD19A4B1B6803F0EC
:1023C80018027B681B699A4214D0964B1B6823F04D
:1023D80018027B681B69934913430B6000F0D0FD1A
:1023E800914B1B681846FFF719FE0346002B01D0D6
:1023F8000123DBE2FFF79CFE786108E0FFF798FE17
:1024080002467B69D31A022B01D90323CEE2854BFE
:102418001B6803F00203002BF0D0824B1B6923F4E6
:10242800FE027B685B691B047E4913430B6149E02C
:102438007B68DB68002B2CD07A4B1B6823F01802D2
:102448007B681B69774913430B60764B1B68754A99
:1024580043F001031360FFF76BFE786108E0FFF7B4
:1024680067FE02467B69D31A022B01D903239DE23A
:102478006C4B1B6803F00203002BF0D0694B1B69FF
:1024880023F4FE027B685B691B04664913430B61F6
:1024980018E0644B1B68634A23F001031360FFF7DD
:1024A80047FE786108E0FFF743FE02467B69D31ACE
:1024B800022B01D9032379E25A4B1B6803F002036C
:1024C800002BF0D17B681B6803F00803002B3CD07D
:1024D8007B689B69002B1CD0524BD3F8F030514AD3
:1024E80043F08063C2F8F030FFF722FE786108E01D
:1024F800FFF71EFE02467B69D31A022B01D903237C
:1025080054E2484BD3F8F03003F00063002BEFD0CF
:102518001BE0444BD3F8F030424A23F08063C2F802
:10252800F030FFF705FE786108E0FFF701FE02468C
:102538007B69D31A022B01D9032337E2394BD3F82D
:10254800F03003F00063002BEFD17B681B6803F0C9
:102558000403002B00F0D280344B5B6A03F00103C4
:10256800002B18D1314B5B6A304A43F001035362A8
:10257800FFF7DEFD786108E0FFF7DAFD02467B69C8
:10258800D31A022B01D9032310E2284B5B6A03F00C
:102598000103002BF0D07B689B68012B08D1214BED
:1025A800D3F8F0301F4A43F00103C2F8F03074E06A
:1025B8007B689B68002B18D11A4BD3F8F030194A66
:1025C80023F00103C2F8F030164BD3F8F030154A67
:1025D80023F08003C2F8F030124BD3F8F030114AE0
:1025E80023F00403C2F8F03057E07B689B68052BA2
:1025F8001ED10C4BD3F8F0300A4A43F00403C2F85A
:10260800F030084BD3F8F030064A23F08003C2F8C4
:10261800F030044BD3F8F030024A43F00103C2F81B
:10262800F0303AE0000C02446C0500200008024437
:102638007B689B68852B18D1A24BD3F8F030A14A50
:1026480043F00403C2F8F0309E4BD3F8F0309D4AB3
:1026580043F08003C2F8F0309A4BD3F8F030994A2F
:1026680043F00103C2F8F03017E0964BD3F8F0308E
:10267800944A23F00103C2F8F030924BD3F8F030BB
:10268800904A23F00403C2F8F0308E4BD3F8F030B0
:102698008C4A23F08003C2F8F0307B689B68002BDB
:1026A80016D0FFF745FD78610AE0FFF741FD0246C5
:1026B8007B69D31A41F28832934201D9032375E129
:1026C800804BD3F8F03003F00203002BEDD015E077
:1026D800FFF72EFD78610AE0FFF72AFD02467B69C5
:1026E800D31A41F28832934201D903235EE1754B34
:1026F800D3F8F03003F00203002BEDD17B681B68A0
:1027080003F02003002B36D07B685B6A002B19D0BE
:102718006C4B1B686B4A43F480531360FFF708FD4A
:10272800786108E0FFF704FD02467B69D31A022BA3
:1027380001D903233AE1634B1B6803F40053002BD0
:10274800F0D018E05F4B1B685E4A23F48053136097
:10275800FFF7EEFC786108E0FFF7EAFC02467B69C8
:10276800D31A022B01D9032320E1564B1B6803F42B
:102778000053002BF0D17B689B6A002B00F0158179
:10278800FB69182B00F0AF807B689B6A022B40F036
:1027980086804C4B1B684B4A23F080731360FFF70D
:1027A800C7FC786108E0FFF7C3FC02467B69D31ACF
:1027B800022B01D90323F9E0424B1B6803F0007395
:1027C800002BF0D13F4B9B6A23F47C5323F0030387
:1027D8007A68D16A7A68126B12020A43394913433C
:1027E8008B627B685B6B013BC3F308027B689B6B66
:1027F800013B5B029BB21A437B68DB6B013B1B040A
:1028080003F4FE031A437B681B6C013B1B0603F0B1
:10281800FE432C4913434B632A4B9B6A294A23F0F6
:10282800100393627B68DB6C264ADB009363254BBD
:102838009B6A244A43F010039362224B9B6A23F05D
:102848000C027B685B6C1F4913438B621D4B9B6AB0
:1028580023F020027B689B6C1A4913438B62194B47
:102868009B6A184A43F480339362164B1B68154AD7
:1028780043F080731360FFF75BFC786108E0FFF7B3
:1028880057FC02467B69D31A022B01D903238DE03A
:102898000C4B1B6803F00073002BF0D085E0094B4C
:1028A8001B68084A23F080731360FFF741FC7861C6
:1028B8000AE0FFF73DFC02467B69D31A022B03D9D5
:1028C800032373E0000C02443A4B1B6803F00073C7
:1028D800002BEED1374B9B6A364A23F4E02323F0D2
:1028E8000303936261E0334B9B6A3B61314B5B6B43
:1028F800FB607B689B6A012B31D03B6903F00302C4
:102908007B68DB6A9A422AD13B691B0A03F03F02C3
:102918007B681B6B9A4222D1FB68C3F308027B6871
:102928005B6B013B9A421AD1FB685B0A03F07F029A
:102938007B689B6B013B9A4211D1FB681B0C03F02F
:102948007F027B68DB6B013B9A4208D1FB681B0E58
:1029580003F07F027B681B6C013B9A4201D0012384
:1029680024E0144B9B6BDB08C3F30C027B68DB6C25
:102978009A421AD00F4B9B6A0E4A23F010039362B7
:10298800FFF7D6FB786100BFFFF7D2FB02467B69F1
:102998009342F9D07B68DB6C064ADB009363054BF6
:1029A8009B6A044A43F010039362002318462037B9
:1029B800BD4680BD000C024480B584B000AF78608D
:1029C80039607B68002B01D101239EE1834B1B6892
:1029D80003F00F033A689A4210D9804B1B6823F022
:1029E8000F027E493B6813430B607C4B1B6803F066
:1029F8000F033A689A4201D0012386E17B681B687D
:102A080003F01003002B12D07B685A69744B1B6AC1
:102A18001B0A03F070039A4209D9714B1B6A23F40D
:102A2800E0427B685B691B026D4913430B627B685C
:102A38001B6803F00803002B12D07B681A69684BE7
:102A48001B6A1B0903F070039A4209D9644B1B6A7D
:102A580023F4E0627B681B691B01614913430B6225
:102A68007B681B6803F00403002B10D07B68DA68CE
:102A78005B4B1B6A03F070039A4208D9584B1B6AD8
:102A880023F070027B68DB68554913430B627B684F
:102A98001B6803F00203002B10D07B689A68504B28
:102AA8001B6A03F00F039A4208D94D4B1B6A23F0A7
:102AB8000F027B689B684A4913430B627B681B685B
:102AC80003F00103002B00F093807B685B68032B05
:102AD80007D1434B1B6803F00073002B21D101235E
:102AE80013E17B685B68022B07D13D4B1B6803F43D
:102AF8000033002B15D1012307E17B685B68012BAC
:102B080007D1374B1B6803F40073002B09D101234D
:102B1800FBE0334B1B6803F00203002B01D10123B8
:102B2800F3E02F4BDB6923F003027B685B682C49D9
:102B38001343CB61FFF7FCFAF8607B685B68032BF3
:102B480012D10AE0FFF7F4FA0246FB68D31A41F201
:102B58008832934201D90323D7E0214BDB6903F084
:102B68001803182BEED143E07B685B68022B12D167
:102B78000AE0FFF7DDFA0246FB68D31A41F2883211
:102B8800934201D90323C0E0154BDB6903F0180316
:102B9800102BEED12CE07B685B68012B22D10AE078
:102BA800FFF7C6FA0246FB68D31A41F2883293420D
:102BB80001D90323A9E00A4BDB6903F01803082BAA
:102BC800EED115E0FFF7B4FA0246FB68D31A41F2DA
:102BD8008832934206D9032397E000BF00200240C1
:102BE800000C02444B4BDB6903F01803002BE9D1BE
:102BF8007B681B6803F00203002B10D07B689A687F
:102C0800444B1B6A03F00F039A4208D2414B1B6ADC
:102C180023F00F027B689B683E4913430B623E4BCF
:102C28001B6803F00F033A689A4210D23A4B1B68AC
:102C380023F00F0238493B6813430B60364B1B687F
:102C480003F00F033A689A4201D001235DE07B68E4
:102C58001B6803F00403002B10D07B68DA682D4B47
:102C68001B6A03F070039A4208D22A4B1B6A23F0AE
:102C780070027B68DB68274913430B627B681B681B
:102C880003F00803002B12D07B681A69214B1B6ADA
:102C98001B0903F070039A4209D21E4B1B6A23F4E6
:102CA800E0627B681B691B011A4913430B627B684E
:102CB8001B6803F01003002B12D07B685A69154B70
:102CC8001B6A1B0A03F070039A4209D2114B1B6A54
:102CD80023F4E0427B685B691B020E4913430B62D5
:102CE80000F022F802460B4B1B6A03F00F030B4956
:102CF800CB5C22FA03F30A4A13600A4B1B68184696
:102D0800FFF78CF90346FB72FB7A18461037BD466D
:102D180080BD00BF000C024400200240D0E600083D
:102D2800680500206C05002080B489B000AF8C4B8A
:102D3800DB6903F01803082B02D18A4BFB6107E11A
:102D4800874BDB6903F01803002B12D1844B1B68F7
:102D580003F02003002B09D0814B1B68DB0803F02C
:102D68000303814A22FA03F3FB61F1E07E4BFB6126
:102D7800EEE07B4BDB6903F01803102B02D17B4B91
:102D8800FB61E5E0764BDB6903F01803182B40F094
:102D9800DD80734B9B6A03F003037B61704B9B6A76
:102DA8001B0A03F03F033B616D4B9B6A1B0903F051
:102DB8000103FB606A4B9B6BDB08C3F30C03FA68E7
:102DC80002FB03F307EE903AF8EE677AC7ED027A52
:102DD8003B69002B00F0B7807B69012B03D07B692E
:102DE800032B56D077E05E4B1B6803F02003002BC3
:102DF8002DD05B4B1B68DB0803F003035A4A22FA09
:102E080003F37B607B6807EE903AF8EE676A3B69EC
:102E180007EE903AF8EE677A86EEA77A504B5B6B2E
:102E2800C3F3080307EE903AF8EE676A97ED026A73
:102E3800DFED4F5AC6EE257A76EEA77AF7EE006AEE
:102E480077EEA67A67EE277AC7ED067A65E03B69E2
:102E580007EE903AF8EE677ADFED466A86EEA77AD3
:102E68003F4B5B6BC3F3080307EE903AF8EE676AD3
:102E780097ED026ADFED3E5AC6EE257A76EEA77A1E
:102E8800F7EE006A77EEA67A67EE277AC7ED067A3C
:102E980043E03B6907EE903AF8EE677ADFED366A71
:102EA80086EEA77A2E4B5B6BC3F3080307EE903AC6
:102EB800F8EE676A97ED026ADFED2D5AC6EE257ABD
:102EC80076EEA77AF7EE006A77EEA67A67EE277AAB
:102ED800C7ED067A21E03B6907EE903AF8EE677A8B
:102EE800DFED266A86EEA77A1D4B5B6BC3F30803FA
:102EF80007EE903AF8EE676A97ED026ADFED1C5A22
:102F0800C6EE257A76EEA77AF7EE006A77EEA67A0D
:102F180067EE277AC7ED067A00BF114B5B6B5B0A39
:102F280003F07F0301333B603B6807EE903AB8EE4D
:102F3800677AD7ED066AC6EE877AFCEEE77A17EE6F
:102F4800903AFB6104E00023FB6101E0064BFB6162
:102F5800FB6918462437BD465DF8047B704700BFFF
:102F6800000C024400093D000090D00300366E01B9
:102F7800000000460024744C001BB74B0024744A20
:102F880080B500AFFFF7D0FE0246084B1B6A03F07E
:102F98000F030749CB5C03F01F0322FA03F3054A2A
:102FA8001360044B1B68184680BD00BF000C024428
:102FB800D0E600086805002080B500AFFFF7E0FF05
:102FC8000246064B1B6A1B0903F007030449CB5C46
:102FD80003F01F0322FA03F3184680BD000C0244D5
:102FE800E0E6000880B500AFFFF7CAFF0246064BCF
:102FF8001B6A1B0A03F007030449CB5C03F01F0399
:1030080022FA03F3184680BD000C0244E0E60008EB
:1030180080B500AFFFF7B4FF0246064B1B6A1B0BD7
:1030280003F007030449CB5C03F01F0322FA03F300
:10303800184680BD000C0244E0E6000880B48BB05E
:1030480000AF7860AE4B5B6BC3F308033B62AC4BDD
:103058009B6A03F00303FB61A94B9B6A1B0A03F0FD
:103068003F03BB61A64B9B6A1B0903F001037B610D
:10307800A34B9B6BDB08C3F30C037A6902FB03F3D6
:1030880007EE903AF8EE677AC7ED047ABB69002B31
:1030980000F02681FB69032B53D0FB69032B6FD803
:1030A800FB69012B03D0FB69022B2BD068E0944B02
:1030B8001B68DB0803F00303924A22FA03F3FB6060
:1030C800FB6807EE903AF8EE676ABB6907EE903A3C
:1030D800F8EE677A86EEA77A3B6A07EE903AF8EE42
:1030E800676A97ED046ADFED885AC6EE257A76EEB0
:1030F800A77AF7EE006A77EEA67A67EE277AC7ED29
:10310800097A68E0BB6907EE903AF8EE677ADFED76
:103118007F6A86EEA77A3B6A07EE903AF8EE676A0E
:1031280097ED046ADFED785AC6EE257A76EEA77A2F
:10313800F7EE006A77EEA67A67EE277AC7ED097A86
:1031480049E0BB6907EE903AF8EE677ADFED706AFE
:1031580086EEA77A3B6A07EE903AF8EE676A97ED33
:10316800046ADFED695AC6EE257A76EEA77AF7EE9D
:10317800006A77EEA67A67EE277AC7ED097A2AE021
:103188005F4B1B68DB0803F003035E4A22FA03F374
:10319800FB60FB6807EE903AF8EE676ABB6907EEDA
:1031A800903AF8EE677A86EEA77A3B6A07EE903A8D
:1031B800F8EE676A97ED046ADFED535AC6EE257A92
:1031C80076EEA77AF7EE006A77EEA67A67EE277AA8
:1031D800C7ED097A00BF4A4B1B6803F00073B3F1CF
:1031E800007F21D1464B9B6A03F48033002B17D014
:1031F800434B5B6B5B0A03F07F0307EE903AF8EEF4
:10320800677AB7EE007A37EE877AD7ED096AC6EEA5
:10321800877AFCEEE77A17EE902A7B681A6006E058
:103228007B6800221A6002E07B6800221A60344B37
:103238001B6803F00073B3F1007F21D1304B9B6A08
:1032480003F40033002B17D02D4B5B6B1B0C03F0E2
:103258007F0307EE903AF8EE677AB7EE007A37EE1A
:10326800877AD7ED096AC6EE877AFCEEE77A17EE19
:10327800902A7B685A6006E07B6800225A6002E068
:103288007B6800225A601E4B1B6803F00073B3F181
:10329800007F21D11A4B9B6A03F48023002B17D09F
:1032A800174B5B6B1B0E03F07F0307EE903AF8EEAB
:1032B800677AB7EE007A37EE877AD7ED096AC6EEF5
:1032C800877AFCEEE77A17EE902A7B689A6010E01E
:1032D8007B6800229A600CE07B6800229A6008E014
:1032E8007B6800221A607B6800225A607B68002293
:1032F8009A6000BF2C37BD465DF8047B704700BF5D
:10330800000C02440090D003000000460024744AD8
:10331800001BB74B80B48BB000AF7860AE4BDB6B53
:10332800C3F308033B62AC4BDB6A03F00303FB61A6
:10333800A94BDB6A1B0A03F03F03BB61A64BDB6AA0
:103348001B0903F001037B61A34B1B6CDB08C3F370
:103358000C037A6902FB03F307EE903AF8EE677AFA
:10336800C7ED047ABB69002B00F02681FB69032BAB
:1033780053D0FB69032B6FD8FB69012B03D0FB6982
:10338800022B2BD068E0944B1B68DB0803F0030387
:10339800924A22FA03F3FB60FB6807EE903AF8EED4
:1033A800676ABB6907EE903AF8EE677A86EEA77A05
:1033B8003B6A07EE903AF8EE676A97ED046ADFED2C
:1033C800885AC6EE257A76EEA77AF7EE006A77EE87
:1033D800A67A67EE277AC7ED097A68E0BB6907EE37
:1033E800903AF8EE677ADFED7F6A86EEA77A3B6A55
:1033F80007EE903AF8EE676A97ED046ADFED785ABF
:10340800C6EE257A76EEA77AF7EE006A77EEA67A08
:1034180067EE277AC7ED097A49E0BB6907EE903A6B
:10342800F8EE677ADFED706A86EEA77A3B6A07EEF8
:10343800903AF8EE676A97ED046ADFED695AC6EECE
:10344800257A76EEA77AF7EE006A77EEA67A67EE27
:10345800277AC7ED097A2AE05F4B1B68DB0803F07F
:1034680003035E4A22FA03F3FB60FB6807EE903A17
:10347800F8EE676ABB6907EE903AF8EE677A86EE6F
:10348800A77A3B6A07EE903AF8EE676A97ED046A06
:10349800DFED535AC6EE257A76EEA77AF7EE006A84
:1034A80077EEA67A67EE277AC7ED097A00BF4A4B0E
:1034B8001B6803F00063B3F1006F21D1464BDB6A50
:1034C80003F48033002B17D0434BDB6B5B0A03F00C
:1034D8007F0307EE903AF8EE677AB7EE007A37EE98
:1034E800877AD7ED096AC6EE877AFCEEE77A17EE97
:1034F800902A7B681A6006E07B6800221A6002E066
:103508007B6800221A60344B1B6803F00063B3F138
:10351800006F21D1304BDB6A03F40033002B17D046
:103528002D4BDB6B1B0C03F07F0307EE903AF8EE94
:10353800677AB7EE007A37EE877AD7ED096AC6EE72
:10354800877AFCEEE77A17EE902A7B685A6006E0E5
:103558007B6800225A6002E07B6800225A601E4B9A
:103568001B6803F00063B3F1006F21D11A4BDB6ACB
:1035780003F48023002B17D0174BDB6B1B0E03F0D3
:103588007F0307EE903AF8EE677AB7EE007A37EEE7
:10359800877AD7ED096AC6EE877AFCEEE77A17EEE6
:1035A800902A7B689A6010E07B6800229A600CE0A1
:1035B8007B6800229A6008E07B6800221A607B68BA
:1035C80000225A607B6800229A6000BF2C37BD46F3
:1035D8005DF8047B704700BF000C02440090D003E4
:1035E800000000460024744A001BB74B80B58CB01D
:1035F80000AFC7E900010023FB620023BB62002380
:103608007B62D7E9002302F17E410B434BD1C44BC7
:10361800D3F8F03003F440737B62C14BD3F8F03039
:1036280003F00203022B08D17B6AB3F5807F04D133
:103638004FF40043FB6200F014BFB94BD3F8F030ED
:1036480003F00063B3F1006F08D17B6AB3F5007F24
:1036580004D14FF4FA43FB6200F003BFB04B1B6880
:1036680003F40033B3F5003F19D17B6AB3F5407F0B
:1036780015D1AB4BDB6903F47C53B3F5007F0AD358
:10368800A74BDB691B0A03F03F03A64AB2FBF3F31F
:10369800FB6200F0E6BE0023FB6200F0E2BE0023FE
:1036A800FB6200F0DEBED7E90023A3F5805152EAA1
:1036B800010300F08E83D7E90023012A73F58053B4
:1036C80080F0CC86D7E90023A3F5007152EA010304
:1036D80000F0AA82D7E90023012A73F5007380F06D
:1036E800BD86D7E90023A3F1100152EA010300F0D7
:1036F8008186D7E90023012A73F1100380F0AE8692
:10370800D7E90023191F52EA010300F0B184D7E971
:103718000023012A73F1040380F0A086D7E900236F
:1037280002F160410B4300F0AA85D7E900237E49E6
:103738008A4273F1000380F09186D7E9002302F1F1
:1037480070410B4300F03285D7E9002377498A425C
:1037580073F1000380F08286D7E9002302F17841F3
:103768000B4300F0BC84D7E9002371498A4273F106
:10377800000380F07386D7E9002302F17C410B43F4
:1037880000F0F285D7E900236A498A4273F1000301
:1037980080F06486D7E90023A2F500110B4300F0FE
:1037A800E581D7E9002364498A4273F1000380F078
:1037B8005586D7E90023A2F580210B4300F0CC837E
:1037C800D7E900235D498A4273F1000380F04686F9
:1037D800D7E90023A2F500310B4300F03183D7E984
:1037E800002357498A4273F1000380F03786D7E9EE
:1037F8000023A2F580310B4300F0BB82D7E90023F8
:10380800B2F1011F73F1000380F02886D7E9002385
:10381800A2F580410B4300F06D82D7E9002344F202
:1038280001018A4273F1000380F01886D7E900236A
:10383800A2F500510B4300F01E82D7E9002342F2A3
:1038480001018A4273F1000380F00886D7E900235A
:10385800A2F580510B4300F03781D7E9002341F2EC
:1038680001018A4273F1000380F0F885D7E900234B
:10387800111F0B4300F0D280D7E90023052A73F10A
:10388800000380F0EB85D7E90023511E0B4306D0D7
:10389800D7E90023911E0B436CD000F0DFBD204B0D
:1038A800D3F8D83003F007037B627B6A002B04D17E
:1038B800FFF798FBF86200F0D4BD194B1B6803F0C2
:1038C8000063B3F1006F0AD17B6A012B07D107F1BE
:1038D8000C031846FFF71EFD3B69FB6248E0104BDE
:1038E8001B6803F00203022B0CD17B6A032B09D15E
:1038F8000B4B1B68DB0803F00303124A22FA03F39D
:10390800FB6235E0064B1B6803F40073B3F5007FD8
:103918001CD17B6A042B19D10B4BFB6228E000BF3A
:10392800000C024400366E01010000200100001066
:10393800010000080100000401002000010004004B
:10394800010002000090D00300093D009F4BD3F80E
:10395800F03003F00203022B06D17B6A052B03D15A
:103968004FF40043FB6203E00023FB6200F079BDE3
:1039780000F077BD954BD3F8D83003F038037B625D
:103988007B6A002B04D1FFF717FBF86200F069BDD2
:103998008E4B1B6803F00063B3F1006F0AD17B6A9A
:1039A800082B07D107F10C031846FFF7B3FC3B6956
:1039B800FB6231E0854B1B6803F00203022B0CD13C
:1039C8007B6A182B09D1814B1B68DB0803F00303C2
:1039D8007F4A22FA03F3FB621EE07C4B1B6803F468
:1039E8000073B3F5007F05D17B6A202B02D1794B98
:1039F800FB6211E0754BD3F8F03003F00203022BA1
:103A080006D17B6A282B03D14FF40043FB6203E005
:103A18000023FB6200F025BD00F023BD6B4BD3F8FB
:103A2800D83003F4E0737B627B6A002B04D1FFF784
:103A3800C3FAF86200F015BD644B1B6803F000631D
:103A4800B3F1006F0AD17B6A402B07D107F10C0351
:103A58001846FFF75FFC3B69FB6233E05B4B1B6872
:103A680003F00203022B0CD17B6AC02B09D1574B00
:103A78001B68DB0803F00303554A22FA03F3FB62D1
:103A880020E0524B1B6803F40073B3F5007F06D1A6
:103A98007B6AB3F5807F02D14E4BFB6212E04B4B41
:103AA800D3F8F03003F00203022B07D17B6AB3F599
:103AB800A07F03D14FF40043FB6203E00023FB62C5
:103AC80000F0CFBC00F0CDBC404BD3F8E03003F0A1
:103AD800E0637B627B6A002B04D1FFF799FAF862F6
:103AE80000F0BFBC7B6AB3F1807F08D107F10C03FB
:103AF8001846FFF70FFC3B69FB6200F0B2BC334B82
:103B08001B6803F00203022B0DD17B6AB3F1407FDF
:103B180009D12E4B1B68DB0803F003032C4A22FA59
:103B280003F3FB6220E0294B1B6803F40073B3F531
:103B3800007F06D17B6AB3F1806F02D1254BFB620F
:103B480012E0224BD3F8F03003F00203022B07D126
:103B58007B6AB3F1A06F03D14FF40043FB6203E02B
:103B68000023FB6200F07DBC00F07BBC174BD3F850
:103B7800E83003F007037B627B6A002B04D1FFF770
:103B8800FFF9F86200F06DBC7B6A012B04D1FFF7E6
:103B9800CBF8F86200F065BC7B6A022B08D107F10C
:103BA8000C031846FFF7B6FB7B69FB6200F059BCB3
:103BB800064B1B6803F40033B3F5003F0ED17B6A54
:103BC800032B0BD1044BFB622CE000BF000C02441A
:103BD8000090D00300093D0000366E01954B1B682C
:103BE80003F00203022B0CD17B6A042B09D1914B01
:103BF8001B68DB0803F003038F4A22FA03F3FB6216
:103C080010E08C4B1B6803F40073B3F5007F05D1FB
:103C18007B6A052B02D1894BFB6203E00023FB6220
:103C280000F01FBC00F01DBC824BD3F8E83003F055
:103C380008037B627F4BD3F8F03003F00203022BBA
:103C480006D17B6A002B03D14FF40043FB6211E0DD
:103C5800784BD3F8F03003F00063B3F1006F06D16E
:103C68007B6A082B03D14FF4FA43FB6202E000237E
:103C7800FB62F6E3F5E36F4BD3F8E43003F440332B
:103C88007B627B6A002B03D1FFF796F9F862E8E3C1
:103C98007B6AB3F5803F07D107F10C031846FFF79D
:103CA80039FB7B69FB62DCE3624B1B6803F00203B0
:103CB800022B0DD17B6AB3F5003F09D15D4B1B6820
:103CC800DB0803F003035C4A22FA03F3FB6210E00B
:103CD800584B1B6803F40073B3F5007F06D17B6A69
:103CE800B3F5403F02D1554BFB6202E00023FB6273
:103CF800B7E3B6E34F4BD3F8E43003F440237B62D9
:103D08007B6A002B03D1FFF757F9F862A9E37B6AB6
:103D1800B3F5802F07D107F10C031846FFF7FAFA1D
:103D28007B69FB629DE3434B1B6803F00203022B94
:103D38000DD17B6AB3F5002F09D13E4B1B68DB0818
:103D480003F003033C4A22FA03F3FB6210E0394B09
:103D58001B6803F40073B3F5007F06D17B6AB3F5E3
:103D6800402F02D1354BFB6202E00023FB6278E36F
:103D780077E3304BD3F8E43003F040737B627B6A1F
:103D8800002B03D1FFF718F9F8626AE37B6AB3F1F5
:103D9800807F07D107F10C031846FFF7BBFA7B6950
:103DA800FB625EE3234B1B6803F00203022B0DD179
:103DB8007B6AB3F1007F09D11E4B1B68DB0803F057
:103DC80003031D4A22FA03F3FB624AE30023FB6262
:103DD80047E3184BD3F8E43003F040637B627B6A17
:103DE800002B03D1FFF714F9F8623AE37B6AB3F1C9
:103DF800806F07D107F10C031846FFF78BFA7B6930
:103E0800FB622EE30B4B1B6803F00203022B0DD160
:103E18007B6AB3F1006F09D1064B1B68DB0803F01E
:103E28000303054A22FA03F3FB621AE30023FB6249
:103E380017E300BF000C02440090D00300093D00C6
:103E48009B4BD3F8DC3003F4E0637B627B6AB3F509
:103E5800A06F44D07B6AB3F5A06F79D87B6AB3F5BD
:103E6800806F2DD07B6AB3F5806F71D87B6AB3F50C
:103E7800407F17D07B6AB3F5407F69D87B6A002BF7
:103E880004D07B6AB3F5807F04D061E0FFF7C0F807
:103E9800F86260E007F10C031846FFF73BFAFB688D
:103EA800FB6258E0824BD3F8F03003F00203022B98
:103EB80003D14FF40043FB624DE00023FB624AE06C
:103EC8007B4BD3F8F03003F00063B3F1006F03D1FC
:103ED8004FF4FA43FB623EE00023FB623BE0744B85
:103EE800D3F8E83003F04043BB62714B1B6803F022
:103EF8000203022B0CD1BB6A002B09D16C4B1B6847
:103F0800DB0803F003036B4A22FA03F3FB621EE0AB
:103F1800674B1B6803F40073B3F5007F06D1BB6AD7
:103F2800B3F1804F02D1644BFB6210E0604B1B6819
:103F380003F40033B3F5003F06D1BB6AB3F1004F79
:103F480002D15E4BFB6202E00023FB6203E002E069
:103F58000023FB6200BF84E2554BD3F8DC3003F446
:103F6800E0437B627B6AB3F5A04F44D07B6AB3F52C
:103F7800A04F79D87B6AB3F5804F2DD07B6AB3F513
:103F8800804F71D87B6AB3F5405F17D07B6AB3F571
:103F9800405F69D87B6A002B04D07B6AB3F5805FE9
:103FA80004D061E0FFF708F8F86260E007F10C035D
:103FB8001846FFF7AFF9FB68FB6258E03C4BD3F8B3
:103FC800F03003F00203022B03D14FF40043FB62ED
:103FD8004DE00023FB624AE0354BD3F8F03003F0A4
:103FE8000063B3F1006F03D14FF4FA43FB623EE084
:103FF8000023FB623BE02E4BD3F8E83003F040434C
:10400800BB622B4B1B6803F00203022B0CD1BB6A6B
:10401800002B09D1264B1B68DB0803F00303254A54
:1040280022FA03F3FB621EE0214B1B6803F40073C2
:10403800B3F5007F06D1BB6AB3F1804F02D11E4BA6
:10404800FB6210E01A4B1B6803F40033B3F5003F22
:1040580006D1BB6AB3F1004F02D1184BFB6202E0F4
:104068000023FB6203E002E00023FB6200BFF8E1EB
:104078000F4BD3F8E83003F440737B620C4B1B689A
:1040880003F40033B3F5003F05D17B6A002B02D15E
:104098000A4BFB62E5E17B6AB3F5807F10D107F13B
:1040A80018031846FEF7CAFFFB69FB62D9E100BF97
:1040B800000C02440090D00300093D0000366E0158
:1040C8007B6AB3F5007F07D107F10C031846FFF7A9
:1040D80021F93B69FB62C4E10023FB62C1E19D4B0E
:1040E800D3F8E03003F007037B627B6A042B59D8CE
:1040F80001A252F823F000BF15410008254100082D
:10410800AD410008354100083B41000807F118039C
:104118001846FEF793FFFB69FB6246E007F10C03C4
:104128001846FFF7F7F8FB68FB623EE08A4BFB6234
:104138003BE0884BD3F8E83003F04043BB62854B43
:104148001B6803F00203022B0CD1BB6A002B09D1B8
:10415800804B1B68DB0803F00303804A22FA03F351
:10416800FB621EE07B4B1B6803F40073B3F5007F12
:1041780006D1BB6AB3F1804F02D1794BFB6210E0E4
:10418800744B1B6803F40033B3F5003F06D1BB6AD8
:10419800B3F1004F02D1734BFB6202E00023FB62D4
:1041A80003E002E00023FB6200BF5AE1694BD3F849
:1041B800E03003F038037B627B6A202B22D07B6AD5
:1041C800202B58D87B6A182B19D07B6A182B52D809
:1041D8007B6A002B03D07B6A082B08D04BE007F1E1
:1041E80018031846FEF72AFFFB69FB6246E007F151
:1041F8000C031846FFF78EF8FB68FB623EE0564B4F
:10420800FB623BE0534BD3F8E83003F04043BB621A
:10421800504B1B6803F00203022B0CD1BB6A002B26
:1042280009D14C4B1B68DB0803F003034B4A22FA05
:1042380003F3FB621EE0474B1B6803F40073B3F5FE
:10424800007F06D1BB6AB3F1804F02D1444BFB62B9
:1042580010E0404B1B6803F40033B3F5003F06D170
:10426800BB6AB3F1004F02D13E4BFB6202E0002370
:10427800FB6203E002E00023FB6200BFF1E0354B84
:10428800D3F8E03003F4E0737B627B6AB3F5807F98
:1042980023D07B6AB3F5807F58D87B6AC02B19D0AE
:1042A8007B6AC02B52D87B6A002B03D07B6A402BD9
:1042B80008D04BE007F118031846FEF7BFFEFB696C
:1042C800FB6246E007F10C031846FFF723F8FB688A
:1042D800FB623EE0204BFB623BE01E4BD3F8E8302C
:1042E80003F04043BB621B4B1B6803F00203022B25
:1042F8000CD1BB6A002B09D1164B1B68DB0803F0F5
:104308000303164A22FA03F3FB621EE0114B1B68F3
:1043180003F40073B3F5007F06D1BB6AB3F1804F95
:1043280002D10F4BFB6210E00A4B1B6803F4003309
:10433800B3F5003F06D1BB6AB3F1004F02D1094B78
:10434800FB6202E00023FB6203E002E00023FB6261
:1043580000BF86E0000C02440080BB000090D00340
:1043680000093D0000366E01404BD3F8E83003F0F9
:1043780030037B623D4B1B6803F40053B3F5005FC9
:1043880005D17B6A002B02D1394BFB6231E0374BF8
:104398001B6803F00073B3F1007F0AD17B6A102B0E
:1043A80007D107F118031846FEF748FEFB69FB62C0
:1043B8001FE02E4BD3F8F03003F00203022B06D196
:1043C8007B6A202B03D14FF40043FB6211E0274B9B
:1043D800D3F8F03003F00063B3F1006F06D17B6AC5
:1043E800302B03D14FF4FA43FB6202E00023FB6257
:1043F80037E036E01D4BD3F8E43003F030037B623E
:104408007B6A102B07D107F118031846FEF716FE32
:10441800FB69FB6225E0154B1B6803F00063B3F1F1
:10442800006F0AD17B6A202B07D107F10C031846CD
:10443800FEF770FF3B69FB620FE00C4B1B6803F44F
:104448000053B3F5005F05D17B6A302B02D1084BCE
:10445800FB6202E00023FB6203E002E00023FB6250
:1044680000BFFB6A18463037BD4680BD000C0244C9
:10447800006CDC0280B487B000AF7860396000233C
:104488003B6142E13B681A6801213B6901FA03F389
:104498001340FB60FB68002B00F034813B685B68CD
:1044A800022B03D03B685B68122B25D13B69DA08E5
:1044B8007B68083253F822307B613B6903F00703BD
:1044C8009B000F2202FA03F3DB437A6913407B61F6
:1044D8003B681B6903F00F023B6903F007039B006D
:1044E80002FA03F37A6913437B613B69DA087B6854
:1044F8000832796943F822107B681B687B613B6945
:104508005B00032202FA03F3DB437A6913407B6101
:104518003B685B6803F003023B695B0002FA03F344
:104528007A6913437B617B687A691A603B685B68C8
:10453800012B0BD03B685B68022B07D03B685B689C
:10454800112B03D03B685B68122B30D17B689B68CA
:104558007B613B695B00032202FA03F3DB437A6960
:1045680013407B613B68DA683B695B0002FA03F33E
:104578007A6913437B617B687A699A607B685B68B8
:104588007B6101223B6902FA03F3DB437A6913403A
:104598007B613B685B681B0903F001023B6902FA17
:1045A80003F37A6913437B617B687A695A603B68D5
:1045B8005B6803F00303032B09D13B685B6803F0D6
:1045C8000303032B1BD13B689B68012B17D07B6827
:1045D800DB687B613B695B00032202FA03F3DB4380
:1045E8007A6913407B613B689A683B695B0002FA11
:1045F80003F37A6913437B617B687A69DA603B6805
:104608005B6803F08053002B7CD0474A3B699B08CA
:10461800183352F823307B613B6903F00303DB0056
:104628000F2202FA03F3DB437A6913407B617B684C
:104638009A0A3E4B13403A6902F00302D2009340B3
:104648007A6913437B6138493B699B0818337A6957
:1046580041F82320344B1B687B61FB68DB437A6994
:1046680013407B613B685B6803F48013002B03D025
:104678007A69FB6813437B612B4A7B6913602A4B79
:104688005B687B61FB68DB437A6913407B613B684D
:104698005B6803F40013002B03D07A69FB681343AB
:1046A8007B61214A7B6953601F4BD3F884307B615F
:1046B800FB68DB437A6913407B613B685B6803F402
:1046C8000033002B03D07A69FB6813437B61164AD9
:1046D8007B69C2F88430144BD3F880307B61FB6867
:1046E800DB437A6913407B613B685B6803F4803382
:1046F800002B03D07A69FB6813437B610A4A7B6904
:10470800C2F880303B6901333B613B681A683B69FA
:1047180022FA03F3002B7FF4B5AE00BF00BF1C37AD
:10472800BD465DF8047B7047002002447F7F2F0060
:1047380080B483B000AF78600B467B8013467B70F3
:104748007B78002B03D07A887B689A6102E07A88AC
:104758007B689A6200BF0C37BD465DF8047B7047E2
:1047680080B485B000AF78600B467B807B685B695E
:10477800FB607A88FB6813401A04FB68D9437B887E
:104788000B401A437B689A6100BF1437BD465DF839
:10479800047B704780B582B000AF78607B68002BDF
:1047A80001D1012342E07B68D3F88830002B06D181
:1047B8007B68002283F88420786800F03BF87B68E7
:1047C8002422C3F888207B681B681A687B681B68EA
:1047D80022F001021A607B689B6A002B02D078687D
:1047E80000F058FA786800F0D7F80346012B01D199
:1047F80001231BE07B681B685A687B681B6822F4EE
:1048080090425A607B681B689A687B681B6822F034
:104818002A029A607B681B681A687B681B6842F0EA
:1048280001021A60786800F0D7FA0346184608377C
:10483800BD4680BD80B483B000AF786000BF0C3740
:10484800BD465DF8047B704780B58AB002AFF8605A
:10485800B9603B601346FB80FB68D3F88830202B97
:1048680040F09580BB68002B02D0FB88002B01D15B
:1048780001238DE0FB681B689B6803F08003802B95
:1048880007D1FB681B689A68FB681B6822F08002E6
:104898009A60FB680022C3F89020FB682122C3F8C5
:1048A8008820FDF745FC7861FB68FA88A3F8542056
:1048B800FB68FA88A3F85620FB689B68B3F5805F0D
:1048C80008D1FB681B69002B04D10023FB61BB687E
:1048D800BB6103E0BB68FB610023BB613AE03B6856
:1048E80000937B6900228021F86800F01FFB0346D3
:1048F800002B05D0FB682022C3F88820032347E05B
:10490800FB69002B0BD1BB691B881A46FB681B6827
:10491800C2F308029A62BB690233BB6107E0FB6914
:104928001A78FB681B689A62FB690133FB61FB68B4
:10493800D3F8883003F02103212B09D1FB68B3F8A1
:1049480056309BB2013B9AB2FB68A3F8562001E0AF
:1049580001231DE0FB68B3F856309BB2002BBED193
:104968003B6800937B6900224021F86800F0DEFA7A
:104978000346002B05D0FB682022C3F888200323B8
:1049880006E0FB682022C3F88820002300E0022309
:1049980018462037BD4680BD2DE9B04F94B000AF12
:1049A800F862002387F84730FB6A9A68FB6A1B693C
:1049B8001A43FB6A5B691A43FB6ADB691343FB64AE
:1049C800FB6A1B681B688A491940FB6A1A68FB6CFA
:1049D8000B431360FB6A1B685B6823F44050FB6A57
:1049E800D968FB6A1A6840EA01035360FB6A9B694D
:1049F800FB64FB6A1A687F4B9A4204D0FB6A1A6A06
:104A0800FB6C1343FB64FB6A1B689B6823F06E41D5
:104A180021F43061FB6A1A68FB6C0B439360FB6AF4
:104A28001B68DB6A23F00F00FB6A596AFB6A1A6885
:104A380040EA0103D362FB6A1A686F4B9A4202D1BB
:104A48000123BB641AE0FB6A1A686C4B9A4202D1D4
:104A58000223BB6412E0FB6A1A68694B9A4202D1CE
:104A68000423BB640AE0FB6A1A68624B9A4203D1CA
:104A78004FF48053BB6401E00023BB64FB6A1A68EF
:104A88005C4B9A4271D1BB6C00223B627A62D7E9D7
:104A98000801FEF7ABFD38643B6C002B00F0E280A8
:104AA800FB6A5B6A574A32F813301A463B6CB3FB11
:104AB800F2F37B63FB6A5A6813465B0013447A6B14
:104AC8009A4205D3FB6A5B681B037A6B9A4203D947
:104AD800012387F84730C5E03B6C0022BB61FA61CF
:104AE800FB6A5B6A474A32F813309BB200223B618B
:104AF8007A61D7E90423D7E90601FBF7A9FB024647
:104B08000B46104619464FF000024FF000030B0207
:104B180043EA10630202F96A4968490800200C4612
:104B2800054612EB040843EB0509FB6A5B680022A3
:104B3800BB60FA60D7E9022340464946FBF788FB89
:104B480002460B461346FB63FB6BB3F5407F08D365
:104B5800FB6BB3F5801F04D2FB6A1B68FA6BDA6043
:104B680080E0012387F847307CE0FB6ADB69B3F516
:104B7800004F49D1BB6C00223B607A60D7E9000145
:104B8800FEF734FD38643B6C002B6BD0FB6A5B6A24
:104B98001C4A32F813301A463B6CB3FBF2F35A0046
:104BA800FB6A5B685B081A44FB6A5B68B2FBF3F359
:104BB800FB63FB6B0F2B16D9FB6BB3F5803F12D24F
:104BC800FB6B9BB223F00F037B87FB6B5B089BB2ED
:104BD80003F007039AB27B8F13437B87FB6A1B683A
:104BE8007A8FDA603EE0012387F847303AE000BF69
:104BF800F369FFCF0024004400380140004400401E
:104C080000480040E8E60008BB6C00229A4693463C
:104C180050465946FEF7EAFC38643B6C002B21D01D
:104C2800FB6A5B6A1A4A32F813301A463B6CB3FBCC
:104C3800F2F2FB6A5B685B081A44FB6A5B68B2FBCA
:104C4800F3F3FB63FB6B0F2B09D9FB6BB3F5803FC9
:104C580005D2FB6B9AB2FB6A1B68DA6002E001239B
:104C680087F84730FB6A0122A3F86A20FB6A012211
:104C7800A3F86820FB6A00225A67FB6A00229A6739
:104C880097F8473018465037BD46BDE8B08F00BF8B
:104C9800E8E6000880B483B000AF78607B689B6A60
:104CA80003F00803002B0AD07B681B685B6823F4B9
:104CB80000417B689A6B7B681B680A435A607B6873
:104CC8009B6A03F00103002B0AD07B681B685B68B2
:104CD80023F400317B68DA6A7B681B680A435A60F0
:104CE8007B689B6A03F00203002B0AD07B681B6871
:104CF8005B6823F480317B681A6B7B681B680A4306
:104D08005A607B689B6A03F00403002B0AD07B6817
:104D18001B685B6823F480217B685A6B7B681B687F
:104D28000A435A607B689B6A03F01003002B0AD081
:104D38007B681B689B6823F480517B68DA6B7B680F
:104D48001B680A439A607B689B6A03F02003002B68
:104D58000AD07B681B689B6823F400517B681A6C37
:104D68007B681B680A439A607B689B6A03F0400370
:104D7800002B1AD07B681B685B6823F480117B6862
:104D88005A6C7B681B680A435A607B685B6CB3F596
:104D9800801F0AD17B681B685B6823F4C0017B68AD
:104DA8009A6C7B681B680A435A607B689B6A03F0AD
:104DB8008003002B0AD07B681B685B6823F4002102
:104DC8007B68DA6C7B681B680A435A6000BF0C3743
:104DD800BD465DF8047B704780B598B002AF786037
:104DE8007B680022C3F89020FDF7A2F978657B68FC
:104DF8001B681B6803F00803082B2FD16FF07E4354
:104E080000937B6D00224FF40011786800F08EF853
:104E18000346002B22D07B681B68BB63BB6B53E83F
:104E2800003F7B637B6B23F080033B657B681B68DB
:104E38001A463B6D7B643A64396C7A6C41E800230E
:104E4800FB63FB6B002BE6D17B682022C3F888202C
:104E58007B68002283F88420032363E07B681B6857
:104E68001B6803F00403042B49D16FF07E430093C1
:104E78007B6D00224FF48001786800F057F80346F4
:104E8800002B3CD07B681B687B627B6A53E8003F41
:104E98003B623B6A23F49073FB647B681B681A4689
:104EA800FB6C3B63FA62F96A3A6B41E80023BB6228
:104EB800BB6A002BE6D17B681B6808333B613B6902
:104EC80053E8003FFB60FB6823F00103BB647B6889
:104ED8001B680833BA6CFA61BB61B969FA6941E8C1
:104EE80000237B617B69002BE5D17B682022C3F816
:104EF8008C207B68002283F88420032312E07B68DF
:104F08002022C3F888207B682022C3F88C207B6885
:104F18000022DA667B6800221A677B68002283F821
:104F28008420002318465837BD4680BD80B584B01C
:104F380000AFF860B9603B601346FB714FE0BB6996
:104F4800B3F1FF3F4BD0FDF7F3F802463B68D31AA5
:104F5800BA699A4202D3BB69002B01D103234EE000
:104F6800FB681B681B6803F00403002B37D0BB6881
:104F7800802B34D0BB68402B31D0FB681B68DB69C1
:104F880003F00803082B10D1FB681B6808221A627B
:104F9800F86800F038F8FB680822C3F89020FB682E
:104FA800002283F88420012329E0FB681B68DB6961
:104FB80003F40063B3F5006F11D1FB681B684FF46D
:104FC80000621A62F86800F01EF8FB682022C3F835
:104FD8009020FB68002283F8842003230FE0FB68FD
:104FE8001B68DA69BB681340BA689A420CBF012390
:104FF8000023DBB21A46FB799A42A0D00023184658
:105008001037BD4680BD80B495B000AF78607B682E
:105018001B687B637B6B53E8003F3B633B6B23F46C
:105028009073FB647B681B681A46FB6C3B64FA63ED
:10503800F96B3A6C41E80023BB63BB6B002BE6D1EC
:105048007B681B6808333B623B6A53E8003FFB619F
:10505800FB6923F0805323F00103BB647B681B6862
:105068000833BA6CFA62BB62B96AFA6A41E800238B
:105078007B627B6A002BE3D17B68DB6E012B18D146
:105088007B681B68FB60FB6853E8003FBB60BB683C
:1050980023F010037B647B681B681A467B6CBB613A
:1050A8007A617969BA6941E800233B613B69002B61
:1050B800E6D17B682022C3F88C207B680022DA6660
:1050C8007B6800225A6700BF5437BD465DF8047BF1
:1050D8007047000080B485B000AF78607B6803F04B
:1050E8000703FB600C4BDB68BB60BA684FF6FF0335
:1050F8001340BB60FB681A02BB68134343F0BF63ED
:1051080043F40033BB60044ABB68D36000BF143764
:10511800BD465DF8047B704700ED00E080B400AF49
:10512800044BDB681B0A03F007031846BD465DF80D
:10513800047B704700ED00E080B483B000AF034605
:105148003960FB80B7F90630002B0ADB3B68DAB21E
:105158000C49B7F906301201D2B20B4483F8002388
:105168000AE03B68DAB20849FB8803F00F03043B06
:105178001201D2B20B441A7600BF0C37BD465DF857
:10518800047B704700E100E000ED00E080B489B0E6
:1051980000AFF860B9607A60FB6803F00703FB6151
:1051A800FB69C3F10703042B28BF0423BB61FB6918
:1051B8000433062B02D9FB69033B00E000237B6123
:1051C8004FF0FF32BB6902FA03F3DA43BB681A40B7
:1051D8007B699A404FF0FF317B6901FA03F3D943A9
:1051E8007B680B40134318462437BD465DF8047BA3
:1051F800704780B582B000AF78607868FFF76AFFC3
:1052080000BF0837BD4680BD80B586B000AF0346F5
:10521800B9607A60FB81FFF781FF78617A68B968C5
:105228007869FFF7B3FF0246B7F90E301146184602
:10523800FFF782FF00BF1837BD4680BD80B483B03A
:1052480000AF78607B68013BB3F1807F01D3012315
:105258000DE00A4A7B68013B5360084B00229A60C4
:10526800064B1B68054A43F00303136000231846E6
:105278000C37BD465DF8047B704700BF10E000E0C6
:1052880080B483B000AF78607B68042B44D801A257
:1052980052F823F0BF520008DD520008FF52000800
:1052A80021530008B15200081F4B1B681E4A43F0E7
:1052B8000403136031E01C4B1B681B4A23F00403F2
:1052C80013601A4BD3F8E430184A23F00C03C2F8E1
:1052D800E43022E0144B1B68134A23F004031360E4
:1052E800124BD3F8E43023F00C03104A43F00403C4
:1052F800C2F8E43011E00C4B1B680B4A23F004039E
:1053080013600A4BD3F8E43023F00C03074A43F048
:105318000803C2F8E43000E000BF00BF0C37BD4608
:105328005DF8047B704700BF10E000E0000C024409
:1053380080B483B000AF174B1B6803F00403002B45
:1053480002D004237B601EE0134BD3F8E43003F053
:105358000C033B603B68082B0FD03B68082B0FD829
:105368003B68002B03D03B68042B03D008E00023E4
:105378007B6008E001237B6005E002237B6002E09C
:1053880000237B6000BF7B6818460C37BD465DF87C
:10539800047B704710E000E0000C024480B400AFCA
:1053A800054B1B68044A43F00103136000231846A9
:1053B800BD465DF8047B70470004034080B58AB0A1
:1053C80004AFF860B9607A603B607B689B00184660
:1053D80002F0C4F938613B69002B13D0642002F055
:1053E800BDF978617B69002B08D0642200217869B7
:1053F800FBF7D4FD7B693A691A6305E0386902F066
:10540800A9FA01E000237B617B69002B0DD0002302
:1054180003937B6902937B6A01933B6A00933B6821
:105428007A68B968F86800F028F87B691846183770
:10543800BD4680BD80B588B002AFF860B9607A60BB
:105448003B607B6A01933B6A00933B687A68B96862
:10545800F868FFF7B3FF38613B69002B05D038695E
:1054680000F09AF801237B6102E04FF0FF337B6183
:105478007B6918461837BD4680BD80B586B000AF39
:10548800F860B9607A603B60BB6A186B7B689B0008
:105498001A46A521FBF782FDBB6A1A6B7B6803F1EC
:1054A8008043013B9B0013443B613B6923F00703A6
:1054B8003B613B6903F00703002B03D002F07EFD3C
:1054C80000BFFDE7BB68002B1ED000237B6112E004
:1054D800BA687B6913441978BA6A7B691344343310
:1054E8000A461A70BA687B6913441B78002B06D0E9
:1054F8007B6901337B617B690F2BE9D900E000BF31
:10550800BB6A002283F843203B6A072B03D902F0C9
:1055180055FD00BFFDE73B6A072B01D907233B6216
:10552800BB6A3A6ADA62BB6A3A6ADA64BB6A04330B
:10553800184601F011FEBB6A1833184601F00CFE3C
:10554800BB6ABA6A1A613B6AC3F10802BB6A9A610C
:10555800BB6ABA6A5A62BB6A196B3B68FA683869EF
:1055680002F0DAFB0246BB6A1A60BB6A1B683A693A
:10557800D31A9B101A467B68934203D802F01EFD8B
:1055880000BFFDE77B6A002B02D07B6ABA6A1A600B
:1055980000BF1837BD4680BD80B584B000AF7860C5
:1055A80002F05AFB3F4B1B6801333E4A13603E4BE7
:1055B8001B68002B09D13C4A7B681360394B1B6878
:1055C800012B10D100F0A8FD0DE0384B1B68002B13
:1055D80009D1354B1B68DA6A7B68DB6A9A4202D8C4
:1055E800314A7B681360324B1B680133304A1360C1
:1055F8002F4B1A687B685A647B68DA6A2D4B1B68E4
:105608009A4203D97B68DB6A2A4A13607B68DA6AA4
:10561800294913469B0013449B000B4404331B6821
:10562800FB607B68FA689A60FB689A687B68DA6056
:10563800FB689B687A6804325A607B681A1DFB68AD
:105648009A607B68DA6A13469B0013449B001A4AE7
:105658001A447B685A617B68DA6A174913469B00CB
:1056680013449B000B441B687A68D26A591C124881
:1056780013469B0013449B000344196002F0FEFA92
:105688000A4B1B68002B08D0074B1B68DA6A7B683B
:10569800DB6A9A4201D202F0CDFA00BF1037BD464C
:1056A80080BD00BF2C0B0020180A0020380B0020FA
:1056B800480B0020340B00201C0A002080B584B061
:1056C80000AF78600023FB607B68002B10D000F0EF
:1056D800A5F80C4B1B68012B03D002F06FFC00BF30
:1056E800FDE70021786800F0A1FF00F0A5F8F86058
:1056F800FB68002B01D102F09DFA00BF1037BD46B0
:1057080080BD00BF540B002080B58AB002AF0123D2
:10571800FB613B4600221A605A609A60DA600023F7
:105728003B6100237B6111E01F4A7B6913441978B0
:105738003A467B6913440A461A703A467B69134411
:105748001B78002B06D07B6901337B617B690E2BAC
:10575800EAD900E000BF3A467B69134400221A7078
:105768000023BB6116E0114B3B61BB699B00104AEB
:105778001344394601930023009300234FF48072A9
:105788003869FFF757FEF861FB69012B06D1BB6941
:105798000133BB61BB69002BE5DD00E000BFFB699D
:1057A80018462037BD4680BD50E500080161000855
:1057B800500B002080B582B000AFFFF7A5FF7860DE
:1057C8007B68012B02D101F037FD78607B68012BE3
:1057D8000ED102F0F3FB0D4B4FF0FF321A600C4B69
:1057E80001221A600B4B00221A6002F01FFB07E02F
:1057F8007B68B3F1FF3F03D102F0E0FB00BFFDE798
:10580800054B1B6800BF0837BD4680BD4C0B002008
:10581800380B0020300B002000E7000880B400AFF0
:10582800044B1B680133034A136000BFBD465DF893
:10583800047B7047540B002080B588B000AF00236C
:10584800FB610023BB6102F007FA00233B616F4B49
:105858001B68002B03D102F0B1FB00BFFDE76B4BC7
:105868001B68013B694A1360684B1B68002B40F0BA
:10587800C580674B1B68002B00F0C0808FE0654B2C
:10588800DB68DB68FB61FB699B6AFB60FB69DB69C2
:10589800FA69126A9A60FB691B6AFA69D2695A60E6
:1058A800FB685A68FB6918339A4203D1FB691A6A84
:1058B800FB685A60FB6900229A62FB681B685A1EE3
:1058C800FB681A60FB695B69BB60FB699B68FA69E6
:1058D800D2689A60FB69DB68FA6992685A60BB68AB
:1058E8005A68FB6904339A4203D1FB69DA68BB68DA
:1058F8005A60FB6900225A61BB681B685A1EBB6864
:105908001A60FB69DA6A444B1B689A4203D9FB693F
:10591800DB6A414A1360FB69DA6A404913469B0017
:1059280013449B000B4404331B687B60FB697A6853
:105938009A607B689A68FB69DA607B689B68FA6999
:1059480004325A60FB691A1D7B689A60FB69DA6A3F
:1059580013469B0013449B00304A1A44FB695A6162
:10596800FB69DA6A2D4913469B0013449B000B44DC
:105978001B68FA69D26A591C284813469B001344CD
:105988009B0003441960FB69DA6A254B1B68DB6AD4
:105998009A4204D9234A3B69012142F823101D4B3E
:1059A8001B68002B7FF46BAFFB69002B01D000F064
:1059B80031FC1D4B1B687B617B69002B12D000F00A
:1059C80045F80346002B04D0164A3B69012142F8EA
:1059D80023107B69013B7B617B69002BEFD1124B64
:1059E80000221A600F4A3B6952F82330002B05D079
:1059F8000123BB610A4B1B6802F01CF902F03EF957
:105A0800BB6918462037BD4680BD00BF540B002037
:105A18002C0B0020EC0A0020340B00201C0A00206C
:105A2800180A0020400B00203C0B002080B483B0F3
:105A380000AF054B1B687B607B6818460C37BD467A
:105A48005DF8047B704700BF300B002080B588B03C
:105A580000AF0023FB617F4B1B68002B40F0EE80FA
:105A68007D4B1B680133BB617B4ABB691360BB6913
:105A7800002B19D1794B1B681B68002B03D002F04F
:105A88009DFA00BFFDE7754B1B687B61744B1B6873
:105A9800724A1360724A7B691360724B1B68013348
:105AA800704A136000F0B6FB6F4B1B68BA699A42E4
:105AB800C0F0A980694B1B681B68002B04D16A4B96
:105AC8004FF0FF321A609EE0644B1B68DB68DB68AE
